:040000008A11112828
:10000800FE00030EFA000408FB000A08FC00831235
:1000180003137F08FD008A11B3288A1113284B3077
:10002800F001F101F201F301F401F501F601F70124
:10003800F801F901AF01B001B101B201B301B40196
:10004800B501A000A100A200A300A400A500A6007D
:10005800A700A800A900AA00AB00AC00AD00AE0044
:1000680083018A11372883168F0171308F0490011C
:10007800D03081050115831281018B1610131012DF
:1000880090129011901010148F018F0183160C1488
:100098009B1118119A010C309900181283129817A5
:1000A80083168C1683121816831685012030860055
:1000B8008701831203179E019F010313850186019F
:1000C80087010B178B172E08B6004B3A031D6E28B5
:1000D800F4017028FF30F4003C303602031C7A2803
:1000E800F130B607FF30AF00B0007D28AF01AF0A8E
:1000F800B001D330B607B608031D85280230B50015
:100108008B28360B8A28B501B50A8B28B501360825
:10011800F3002D08F7004B3A031D9428F6019628A2
:10012800FF30F6003C307702031CA028F130F707B7
:10013800FF30B100B200A328B101B10AB201D33037
:10014800F7077708F5002C08F8003C307802031C04
:10015800AF28F130F807D330F807F80867288B1371
:1001680018168C1ED128181D9818CD281A08F900C1
:10017800553A031DC128F201EE287208203E84007A
:10018800790883138000F20A72080F3A0319BF280E
:10019800EE2818121A08F900BF280B1DEA280B11BF
:1001A800FF30B307031CB4033408803AFF008030E3
:1001B8007F02031DE128013033020318E628FA20E4
:1001C8008A11EE28831203138101EE280C1CEF28F4
:1001D8000C1012218B177D08FF007C088A007B0811
:1001E80084007A0E8300FE0E7E0E09007308013E1D
:1001F80084008A112C218A11831203138100350887
:10020800B300B4012F08F0070730F00570082E3E40
:1002180084008A112C217405850008003108F10733
:100228000730F1057508103E84008A112C218A11C7
:100238008F0075081F3E84008A112C218A118E00B8
:100248007108363E84008A112C2176058700080043
:1002580001308A000408840A820700340F34873486
:1002680005344334693482349434A134AC34B4341E
:10027800BB34C034C534C934CD34A234D134E034AD
:10028800E834ED34F034F234F434F534F634F73439
:10029800F834F834F934F9343F341F34BF348F3428
:1002A8003F345F349A34473494349F3479342F344C
:1002B800C9344D34BF3411340134033402340634A4
:1002C8000434143410340934013403340234063449
:0602D80004340C3408346C
:02400E00C4FFED
:00000001FF
