:020000001028C6
:10000800FE00030EF8000408F9000A08FA0083123B
:1000180003137F08FB0017291128703084007630FD
:100028006922831320308400383069225A22B800AC
:100038005B22B9005C22BA005D22BB005E22BC00D4
:100048005F22BD006022BE006122BF006222C000A4
:100058006322C1006422C2006522C3006622C40074
:100068006722C5006822C60083013A288316031355
:100078008F01713083120313C700470883160313D7
:100088008F049001D03083120313C70047088316EA
:100098000313810501158312031381018B161013B5
:1000A800101290129011901010148F018F01831666
:1000B80003130C149B1118119A010C309900181293
:1000C800831203139817831603138C1683120313D2
:1000D80018168316031385012030860087018312C2
:1000E80003179E019F01831203138501860187016F
:1000F8000B178B174608C7004708FC007C084B3ACB
:10010800031D8828B3018C28FF30C7004708B300B7
:100118003C307C02031C99287C08F13EC700470844
:10012800FC00FF30A600FF309C280130A6000030FC
:10013800A7007C08D33EC7004708FC00FC08031D45
:10014800AA280230C7004708B000B2287C08013A44
:10015800031DB128B001B00AB228B0017C08C7005D
:100168004708F1004508C7004708F30073084B3AF1
:10017800031DC028B401C428FF30C7004708B400D5
:100188003C307302031CD1287308F13EC7004708AE
:10019800F300FF30A800FF30D4280130A800003059
:1001A800A9007308D33EC7004708F3007308C700C7
:1001B8004708F2004408C7004708F40074084B3A9F
:1001C800031DE828B601EC28FF30C7004708B60031
:1001D8003C307402031CF9287408F13EC700470834
:1001E800F400FF30AA00FF30FC280130AA000030DC
:1001F800AB007408D33EC7004708F400F408031D99
:100208000A290230C7004708B10012297408013AC8
:10021800031D1129B101B10A1229B1017408C700DF
:100228004708B5007E288B1318168C1E3E29181D0A
:10023800981837291A08F6007608F5007508553A0F
:1002480003193C297508F6007008383E84007608C2
:10025800831380000130F6007608F00770080F3A23
:10026800031DA9293C2918121A08F6007608F5007A
:10027800F001A9290B1D7B290B1102302C062D0436
:10028800031D4B290130AC000030AD00522901306C
:100298002C062D04031D5429AC01AD018101A929A7
:1002A8007108013E8400002281003008F600F70141
:1002B8007608AC007708AD002608A0070318A10A45
:1002C8002708A107083020062104031D6E29A00174
:1002D800A1017429A11F74290730A0000030A100D2
:1002E80020083D3E8400002233058500A9290C1C06
:1002F8009C290C102808A2070318A30A2908A30799
:10030800083022062304031D8C29A201A301922987
:10031800A31F92290730A2000030A3007208103EE4
:10032800840000228F0072081F3E840000228E0085
:1003380024084D3E840000223605F6002208453E7A
:10034800840000223405760487008B177B08FF00A1
:100358007A088A0079088400780E8300FE0E7E0EE3
:0203680009008A
:1004000002308A000408840A820700340F348734DB
:1004100005344334693482349434A134AC34B43474
:10042000BB34C034C534C934CD34A234D134E03403
:10043000E834ED34F034F234F434F534F634F7348F
:10044000F834F834F934F9343F341F34BF348F347E
:100450003F345F349A34473494349F3479342F34A2
:10046000C9344D34BF34F0347834FA34BB34963464
:100470007D346B345D3453344B3444343E343A343D
:100480001834323411340134033402340634043461
:10049000143410340934013403340234063404347F
:1004A0000C34083490341034303420346034403408
:1004B000C03480344B344B344B344B344B344B349A
:1004C0004B344B344B344B344B344B344B344B3434
:1004D0004B3464008001840A0406031900340406C6
:0204E0006A2A86
:02400E00C4FFED
:00000001FF
