:020000001028C6
:10000800FE00030EF7000408F8000A08F90083123E
:1000180003137F08FA00EE28112870308400763028
:100028003521831320308400353035212D21B5004A
:100038002E21B6002F21B7003021B8003121B90098
:100048003221BA003321BB003421BC003D21FC0021
:1000580083012E28831603138F0171308312031333
:10006800BD003D08831603138F049001D03083121E
:100078000313BD003D088316031381050115831280
:10008800031381018B161013101290129011901007
:1000980010148F018F01831603139B1118119A01F5
:1000A8000C30990018128312031398178316031340
:1000B8008C16831203131816831603138501203038
:1000C80086008701831203179E019F018312031381
:1000D80085010B178B1720082E3E8400A32085006E
:1000E8007C08BD003D08FB003C307B02031C8528D2
:1000F8007B08F13EBD003D08FB00FF30A600FF3045
:1001080088280130A6000030A7007B08D33EBD0038
:100118003D08FB00FB08031D96280230BD003D0882
:10012800B1009E287B08013A031D9D28B101B10A40
:100138009E28B1017B08BD003D08F0006F28003003
:100148008A000408840A820700340F34873405348F
:100158004334693482349434A134AC34B434BB3479
:10016800C034C534C934CD34A234D134E034E83491
:10017800ED34F034F234F434F534F634F734F8343A
:10018800F834F934F9343F341F34BF348F343F34F2
:100198005F349A34473494349F3479342F34C934D3
:1001A8004D34BF341134013403340234063404347A
:1001B800143410340934013403340234063404345A
:1001C8000C340834903410343034203460344034E3
:1001D800C03480348B138C1E0C29181D98180629DE
:1001E8001A08F6007608F5007508553A03190A2921
:1001F8007C087506031904297508F6007608FC00C2
:10020800F50121291A08F6007608F500B001212920
:100218000B1D22290B117008013E8400A3208100C8
:100228000130A0070318A10A0030A10708302006F2
:100238002104031D2129A001A1018B177A08FF00C1
:1002480079088A0078088400770E8300FE0E7E0EF7
:1002580009002D342D342D3401342D3401342D343E
:10026800013464008001840A04060319003404067A
:0402780036292D34C2
:02400E00C4FFED
:00000001FF
