:040000008A110D282C
:10000800FE00030EF9000408FA000A08FB008A1132
:1000180081298A110F287030840079308A110922C9
:100028008A1120308313840035308A1109224B301D
:10003800B500B600B700B800B900BA00BB00BC00F4
:10004800BD00BE00BF00C000C100C200C3008301E4
:100058008A11EF284308F6004B3A031D3528B201F0
:100068003728FF30B2003C307602031C4128F130BB
:10007800F607FF30A000A1004428A001A00AA101B2
:10008800D330F607F608031D4C280230AF0052287B
:10009800760B5128AF01AF0A5228AF017608B1009C
:1000A8004208F7004B3A031D5B28F4015D28FF3036
:1000B800F4003C307702031C6728F130F707FF3063
:1000C800A200A3006A28A201A20AA301D330F7075D
:1000D8007708F3004108F8004B3A031D7528F5012D
:1000E8007728FF30F5003C307802031C8128F13076
:1000F800F807FF30A400A5008428A401A40AA501DC
:10010800D330F807F808031D8C280230B000922875
:10011800780B9128B001B00A9228B0017808B30092
:10012800080000308A000408840A820700340F346B
:10013800873405344334693482349434A134AC347C
:10014800B434BB34C034C534C934CD34A234D1340A
:10015800E034E834ED34F034F234F434F534F63481
:10016800F734F834F834F934F9343F341F34BF34F1
:100178008F343F345F349A34473494349F3479341D
:100188002F34C9344D34BF34F0347834FA34BB34A6
:1001980096347D346B345D3453344B3444343E34BC
:1001A8003A34183432341134013403340234063406
:1001B800043414341034093401340334023406345A
:1001C80004340C340834903410343034203460341F
:1001D8004034C034803483168F0171308F0490010D
:1001E800D03081050115831281018B16101310126E
:1001F80090129011901010148F018F0183160C1417
:100208009B1118119A010C30990018128312981733
:1002180083168C1683121816121492149215121241
:1002280092121213FF30831692008312121583164E
:100238008C148501203086008701831203179E01E4
:100248009F0103138501860187010B178B172E0861
:10025800031932298A112E208A11AE012B0803199D
:1002680039298A11B7218A11AB012C0803194029B1
:100278008A11E5218A11AC012D0803192B298A114D
:1002880049218A118312AD012B29FF30A807031CCD
:10029800A9032908803AFF0080307F02031D5629F0
:1002A8000130280203187C298312031333082E3ED9
:1002B80084008A1195208A118316920083123008CF
:1002C800A800A9012408F1070730F10571084D3E7F
:1002D80084008A1195208A117505C4007008453E6E
:1002E80084008A11952074054404C500870008001D
:1002F800FF3083160313920008008B138312031335
:100308008C1E9C291A08B400553A031D8D29F20148
:10031800AD297208353E8400340883138000F20A40
:1003280072080F3A031DAD29F201AE01AE0AAD29DC
:100338000B1DA2290B11AB01AB0AAD290C1CA82976
:100348000C10AC01AC0AAD298C1CAE298C10AD0187
:10035800AD0A8B177B088A007A088400790E83001F
:10036800FE0E7E0E0900FF30A607031CA703270810
:10037800803AFF0080307F02031DC4290130260225
:100388000318E129831203133108013E84008A11FE
:1003980095208A1181002F08A600A7012008AA0726
:1003A8000730AA052A083D3E84008A119520C4001A
:1003B8003208C4054408850008008312031381012C
:1003C80008002208F0070730F0057308103E840083
:1003D8008A1195208A118F0073081F3E84008A11A4
:1003E80095208A118E0071084D3E84008A1195204F
:1003F8008A117505C4007008453E84008A1195204D
:1004080074054404C5008700080064008001840A5C
:0A04180004060319003404060A2A42
:02400E00C4FFED
:00000001FF
