:040000008A110D282C
:10000800FE00030EF9000408FA000A08FB008A1132
:100018005A298A110F287030840078308A110C22EE
:100028008A1120308313840036308A110C224B3019
:10003800B600B700B800B900BA00BB00BC00BD00EC
:10004800BE00BF00C000C100C200C300C4008301DD
:100058008A1195284408F5004B3A031D3528B30149
:100068003728FF30B3003C307502031C4128F130BB
:10007800F507FF30A000A1004428A001A00AA101B3
:10008800D330F507F508031D4C280230B00052287C
:10009800750B5128B001B00A5228B0017508B2009A
:1000A8004308F6004B3A031D5B28F3015D28FF3037
:1000B800F3003C307602031C6728F130F607FF3066
:1000C800A200A3006A28A201A20AA301D330F6075E
:1000D8007608F2004208F7004B3A031D7528F40130
:1000E8007728FF30F4003C307702031C8128F13078
:1000F800F707FF30A400A5008428A401A40AA501DD
:10010800D330F707F708031D8C280230B100922876
:10011800770B9128B101B10A9228B1017708B40090
:10012800080083168F0171308F049001D03081054B
:100138000115831281018B16101310129012901161
:10014800901010148F018F0183160C14831212144F
:1001580092149215121292121213FF308316920003
:100168008312121583168C149B1118119A010C30E6
:10017800990018128312981783168C168312181672
:1001880083168501203086008701831203179E019C
:100198009F0103138501860187010B178B172F0811
:1001A8000319DA288A112E208A11AF012C080319A5
:1001B800E1288A11EB218A11AC012D080319E828DE
:1001C8008A11C7218A11AD012E080319D3288A1173
:0A01D8009B218A118312AE01D32887
:1002000001308A000408840A820700340F348734DE
:1002100005344334693482349434A134AC34B43476
:10022000BB34C034C534C934CD34A234D134E03405
:10023000E834ED34F034F234F434F534F634F73491
:10024000F834F834F934F9343F341F34BF348F3480
:100250003F345F349A34473494349F3479342F34A4
:10026000C9344D34BF34F0347834FA34BB34963466
:100270007D346B345D3453344B3444343E343A343F
:100280003634323411340134033402340634043445
:100290001434103409340134033402340634043481
:1002A0000C3408349034103430342034603440340A
:1002B000C03480348312031318168C1E6C29181D49
:1002C000981867291A08B50086218A117D29181205
:1002D0001A08B500AB017D290B1D72290B11AC0169
:1002E000AC0A7D290C1C78290C10AD01AD0A7D29C2
:1002F0008C1C7D298C10AE01AE0A7B088A007A081E
:100300008400790E8300FE0E7E0E0900F800553A37
:10031000031D8C29AB0108002B08363E84007808A9
:1003200083138000AB0A2B080F3A031D0800AB01B2
:10033000AF01AF0A0800FF30A807031CA903A91FDB
:10034000C32934082E3E84008A1100218A118316A5
:10035000920083123108A800A9012408F107073090
:10036000F10571084D3E84008A1100218A1174053F
:10037000C5007008453E84008A11002173054504BC
:10038000C60087000800FF3083169200080022088C
:10039000F0070730F0057208103E84008A11002132
:1003A0008A118F0072081F3E84008A1100218A1171
:1003B0008E0071084D3E84008A1100218A11740557
:1003C000C5007008453E84008A110021730545046C
:1003D000C60087000800FF30A607031CA703A71F5D
:1003E0000A2A3208013E84008A1100218A11810004
:1003F0003008A600A7012008AA070730AA052A0886
:100400003D3E84008A110021C5003308C50545081A
:10041000850008008101080064008001840A040648
:080420000319003404060D2A43
:02400E00C4FFED
:00000001FF
