:020000001028C6
:10000800FE00030EF8000408F9000A08FA0083123B
:1000180003137F08FB00DF28112870308400763036
:10002800D7218313203084003830D721C821B80065
:10003800C921B900CA21BA00CB21BB00CC21BC0020
:10004800CD21BD00CE21BE00CF21BF00D021C000F0
:10005800D121C100D221C200D321C300D421C400C0
:10006800D521C500D621C60083013A28831603137B
:100078008F01713083120313C700470883160313D7
:100088008F049001D03083120313C70047088316EA
:100098000313810501158312031381018B161013B5
:1000A800101290129011901010148F018F01831666
:1000B80003130C149B1118119A010C309900181293
:1000C800831203139817831603138C1683120313D2
:1000D80018168316031385012030860087018312C2
:1000E80003179E019F01831203138501860187016F
:1000F8000B178B174608C7004708FC007C084B3ACB
:10010800031D8828F2018C28FF30C7004708F20039
:100118003C307C02031C99287C08F13EC700470844
:10012800FC00FF30A600FF309C280130A6000030FC
:10013800A7007C08D33EC7004708FC00FC08031D45
:10014800AA280230C7004708B000B2287C08013A44
:10015800031DB128B001B00AB228B0017C08C7005D
:100168004708F1004508C7004708F40074084B3AEF
:10017800031DC028B301C428FF30C7004708B300D7
:100188003C307402031CD1287408F13EC7004708AC
:10019800F400FF30A800FF30D4280130A800003058
:1001A800A9007408D33EC7004708F4007408C700C4
:1001B8004708F3007E288B1318168C1E0629181D75
:1001C8009818FF281A08F6007608F5007508553AB9
:1001D800031904297508F6007008383E840076086B
:1001E800831380000130F6007608F00770080F3A94
:1001F800031D7129042918121A08F6007608F5005B
:10020800F00171290B1D43290B1102302C062D0416
:10021800031D13290130AC000030AD001A2901304C
:100228002C062D04031D1C29AC01AD018101712987
:100238007108013E84007D2181003008F600F70135
:100248007608AC007708AD002608A0070318A10AB5
:100258002708A107083020062104031D3629A0011C
:10026800A1013C29A11F3C290830A0000030A100B1
:1002780020082E3E84007D217205850071290C1C02
:1002880064290C102808A2070318A30A2908A30741
:10029800083022062304031D5429A201A3015A2968
:1002A800A31F5A290830A2000030A3007308103E8B
:1002B80084007D218F0073081F3E84007D218E00FD
:1002C80024083E3E84007D213505F6002208363E8E
:1002D80084007D213305760487008B177B08FF0097
:1002E8007A088A0079088400780E8300FE0E7E0E54
:1002F800090001308A000408840A820700340F3498
:10030800873405344334693482349434A134AC34AA
:10031800B434BB34C034C534C934CD34A234D13438
:10032800E034E834ED34F034F234F434F534F634AF
:10033800F734F834F834F934F9343F341F34BF341F
:100348008F343F345F349A34473494349F3479344B
:100358002F34C9344D34BF341134013403340234DA
:1003680006340434143410340934013403340234A8
:10037800063404340C3408349034103430342034C7
:1003880060344034C03480344B344B344B344B34B9
:100398004B344B344B344B344B344B344B344B345D
:1003A8004B344B344B3464008001840A040603192F
:0603B80000340406D82900
:02400E00C4FFED
:00000001FF
