:020000001028C6
:10000800FE00030EF2000408F3000A08F40083124D
:1000180003137F08F5009E281128763084007B3072
:100028005321831320308400363053214B21B600EE
:100038004C21B7004D21B8004E21B9004F21BA001C
:100048005021BB005121BC005221BD005B21FC00A6
:1000580083012E28831603138F0171308312031333
:10006800BE003E08831603138F049001D03083121C
:100078000313BE003E08831603138105011583127E
:10008800031381018B161013101290129011901007
:1000980010148F018F01831603139B1118119A01F5
:1000A8000C30990018128312031398178316031340
:1000B8008C16831203131816831603138501203038
:1000C80086008701831203179E019F018312031381
:1000D80085010B178B177C08BE003E08FB003C30DF
:1000E8007B02031C80287B08F13EBE003E08FB0013
:1000F800FF30A400FF3083280130A4000030A500A1
:100108007B08D33EBE003E08FB00FB08031D912878
:100118000230BE003E08F80099287B08013A031D0A
:100128009828F801F80A9928F8017B08BE003E08CB
:10013800F9006F288B138C1EB828181D9818B22840
:100148001A08F0007008FA007A08553A0319B62818
:100158007A08F0007008FC00FA01F3281A08F00089
:100168007008FA00AE01F3280B1DF4280B110230B9
:100178002A062B04031DC5280130AA000030AB0055
:10018800CC2801302A062B04031DCE28AA01AB0176
:100198008101F3287908013E840000218100780854
:1001A800F000F1017008AA007108AB002408F607F6
:1001B8000318F70A2508F707083076067704031DA1
:1001C800E828F601F701EE28F71FEE280830F600B8
:1001D8000030F70076082E3E8400002185008B173A
:1001E8007508FF0074088A0073088400720E830083
:0601F800FE0E7E0E090060
:1002000001308A000408840A820700340F348734DE
:1002100005344334693482349434A134AC34B43476
:10022000BB34C034C534C934CD34A234D134E03405
:10023000E834ED34F034F234F434F534F634F73491
:10024000F834F834F934F9343F341F34BF348F3480
:100250003F345F349A34473494349F3479342F34A4
:10026000C9344D34BF3411340134033402340634FC
:1002700004341434103409340134033402340634A1
:1002800004340C3408349034103430342034603466
:100290004034C03480342D342D342D3401342D3489
:1002A00001342D34013464008001840A04060319EA
:0802B0000034040654292D342A
:02400E00C4FFED
:00000001FF
