:020000001028C6
:10000800FE00030EF8000408F9000A08FA0083123B
:1000180003137F08FB003A281128703084007630DB
:10002800CB218313203084003830CB21BC21B80089
:10003800BD21B900BE21BA00BF21BB00C021BC0050
:10004800C121BD00C221BE00C321BF00C421C00020
:10005800C521C100C621C200C721C300C821C400F0
:10006800C921C500CA21C6008301D6288B131816DA
:100078008C1E6128181D98185A281A08F600760848
:10008800F5007508553A03195F287508F6007008D9
:10009800383E84007608831380000130F600760825
:1000A800F00770080F3A031DCA285F2818121A08AB
:1000B800F6007608F500F001CA280B1D9E280B11E2
:1000C80002302C062D04031D6E280130AC000030D0
:1000D800AD00752801302C062D04031D7728AC01CE
:1000E800AD018101CA287108013E84007121810097
:1000F8003008F600F7017608AC007708AD0026084E
:10010800A0070318A10A2708A10708302006210420
:10011800031D9128A001A1019728A11F9728083045
:10012800A0000030A10020082E3E84007121720535
:100138008500CA280C1CBF280C102808A207031821
:10014800A30A2908A307083022062304031DAF28A1
:10015800A201A301B528A31FB5280830A2000030CA
:10016800A3007308103E840071218F0073081F3E9E
:10017800840071218E0024083E3E84007121F6001F
:100188002208363E84007121760487008B177B088D
:10019800FF007A088A0079088400780E8300FE0E32
:1001A8007E0E0900831603138F0171308312031327
:1001B800C7004708831603138F049001D0308312B9
:1001C8000313C7004708831603138105011583121B
:1001D800031381018B1610131012901290119010B6
:1001E80010148F018F01831603130C149B1118111F
:1001F8009A010C309900181283120313981783166A
:1002080003138C1683120313181683160313850120
:10021800203086008701831203179E019F018312F5
:1002280003138501860187010B178B174608C70042
:100238004708FC007C084B3A031D2429F2012829B1
:10024800FF30C7004708F2003C307C02031C352908
:100258007C08F13EC7004708FC00FF30A600FF30CD
:1002680038290130A6000030A7007C08D33EC7001B
:100278004708FC00FC08031D46290230C700470850
:10028800B0004E297C08013A031D4D29B001B00A7F
:100298004E29B0017C08C7004708F1004508C7008F
:1002A8004708F4003C307402031C63297408F13ECB
:1002B800C7004708F400FF30A800FF306629013066
:1002C800A8000030A9007408D33EC7004708F4000E
:1002D8007408C7004708F3001A2901308A00040887
:1002E800840A820700340F34873405344334693470
:1002F80082349434A134AC34B434BB34C034C534FF
:10030800C934CD34A234D134E034E834ED34F03497
:10031800F234F434F534F634F734F834F834F93484
:10032800F9343F341F34BF348F343F345F349A3448
:10033800473494349F3479342F34C9344D34BF341E
:1003480011340134033402340634043414341034C0
:100358000934013403340234063404340C340834C8
:10036800903410343034203460344034C034803415
:100378002D342D342D342D342D342D342D342D346D
:100388002D342D342D342D342D342D342D3464005A
:0E0398008001840A0406031900340406CC29EF
:02400E00C4FFED
:00000001FF
