:020000001028C6
:10000800FE00030EF2000408F3000A08F40083124D
:1000180003137F08F500A3281128763084007B306D
:100028005721831320308400363057214F21B600E2
:100038005021B7005121B8005221B9005321BA000C
:100048005421BB005521BC005621BD005F21FC0096
:1000580083012E28831603138F0171308312031333
:10006800BE003E08831603138F049001D03083121C
:100078000313BE003E08831603138105011583127E
:10008800031381018B161013101290129011901007
:1000980010148F018F01831603139B1118119A01F5
:1000A8000C30990018128312031398178316031340
:1000B8008C16831203131816831603138501203038
:1000C80086008701831203179E019F018312031381
:1000D80085010B178B1776082E3E840004218500B6
:1000E8007C08BE003E08FB003C307B02031C8528D0
:1000F8007B08F13EBE003E08FB00FF30A400FF3045
:1001080088280130A4000030A5007B08D33EBE003B
:100118003E08FB00FB08031D96280230BE003E087F
:10012800F8009E287B08013A031D9D28F801F80A6B
:100138009E28F8017B08BE003E08F9006F288B1343
:100148008C1EBD28181D9818B7281A08F0007008CA
:10015800FA007A08553A0319BB287A08F0007008A3
:10016800FC00FA01F8281A08F0007008FA00AE013D
:10017800F8280B1DF9280B1102302A062B04031D41
:10018800CA280130AA000030AB00D12801302A0665
:100198002B04031DD328AA01AB018101F828790893
:1001A800013E8400042181007808F000F101700804
:1001B800AA007108AB002408F6070318F70A2508F7
:1001C800F707083076067704031DED28F601F701D6
:1001D800F328F71FF3280830F6000030F7007608F8
:1001E8002E3E8400042185008B177508FF007408D3
:1001F8008A0073088400720E8300FE0E7E0E0900CA
:1002080001308A000408840A820700340F348734D6
:1002180005344334693482349434A134AC34B4346E
:10022800BB34C034C534C934CD34A234D134E034FD
:10023800E834ED34F034F234F434F534F634F73489
:10024800F834F834F934F9343F341F34BF348F3478
:100258003F345F349A34473494349F3479342F349C
:10026800C9344D34BF3411340134033402340634F4
:100278000434143410340934013403340234063499
:1002880004340C340834903410343034203460345E
:100298004034C03480342D342D342D3401342D3481
:1002A80001342D34013464008001840A04060319E2
:0802B8000034040658292D341E
:02400E00C4FFED
:00000001FF
