:020000001028C6
:10000800FE00030EF8000408F9000A08FA0083123B
:1000180003137F08FB009528112870308400763080
:1000280074218313383084004D3074213830FD003A
:100038000130FE004D30FF0020308400692183012B
:100048002528831603138F01713083120313CD0003
:100058004D08831603138F049001D03083120313C5
:10006800CD004D0883160313810501158312031370
:1000780081018B1610131012901290119010101409
:100088008F018F01831603139B1118119A010C30ED
:1000980099001812831203139817831603138C16EA
:1000A8008312031318168316031385012030860064
:1000B8008701831203179E019F0183120313850191
:1000C8000B178B172E08CD004D08FC003C307C0226
:1000D800031C77287C08F13ECD004D08FC00FF305A
:1000E800BC00FF307A280130BC000030BD007C081D
:1000F800D33ECD004D08FC00FC08031D88280230C3
:10010800CD004D08F30090287C08013A031D8F2884
:10011800F301F30A9028F3017C08CD004D08F400A0
:1001280066288B138C1EBB28181D9818B5281A082A
:10013800F6007608F5007508553A0319B9287508C8
:10014800F6007208203E8400760883138000013090
:10015800F6007608F20772080F3A0319F201F50162
:10016800F6281A08F6007608F500F201F6280B1DA5
:10017800F7280B11023042064304031DC82801303A
:10018800C2000030C300CF28013042064304031DDB
:10019800D128C201C3018101F6287408013E8400F8
:1001A800022181007308F600F7017608C20077087B
:1001B800C3003C08F0070318F10A3D08F1070830AE
:1001C80070067104031DEB28F001F101F128F11FFD
:1001D800F1280830F0000030F10070082E3E84004D
:1001E800022185008B177B08FF007A088A007908AE
:1001F8008400780E8300FE0E7E0E090001308A000E
:100208000408840A820700340F34873405344334E1
:10021800693482349434A134AC34B434BB34C0343B
:10022800C534C934CD34A234D134E034E834ED34A3
:10023800F034F234F434F534F634F734F834F8346E
:10024800F934F9343F341F34BF348F343F345F34CA
:100258009A34473494349F3479342F34C9344D3424
:10026800BF341134013403340234063404341434F2
:1002780010340934013403340234063404340C34A1
:100288000834903410343034203460344034C0346E
:1002980080342D342D342D342D342D342D342D34FB
:1002A8002D342D342D342D342D342D342D342D343E
:1002B8002D342D342D342D3401342D3401342D3486
:1002C80001347E088A007F08820065218000840A44
:1002D80004087D0603190034FF0A0319FE0A692978
:1002E80064008001840A0406031900340406752991
:02400E00C4FFED
:00000001FF
