:020000001028C6
:10000800FE00030EF8000408F9000A08FA0083123B
:1000180003137F08FB0025281128703084007630F0
:10002800C1218313383084004D30C1213830FD00A0
:100038000130FE009A30FF0020308400B621830191
:10004800C0288B1318168C1E4C28181D9818452884
:100058001A08F6007608F5007508553A03194A2873
:100068007508F6007008203E840076088313800027
:100078000130F6007608F00770080F3A031DB4281F
:100088004A2818121A08F6007608F500F001B42874
:100098000B1D88280B11023044064504031D5928FE
:1000A8000130C4000030C500602801304406450412
:1000B800031D6228C401C5018101B4287208013EEC
:1000C80084004F2181007108F600F7017608C4000A
:1000D8007708C5003E08B8070318B90A3F08B907EA
:1000E800083038063904031D7C28B801B901822874
:1000F800B91F82280830B8000030B90038082E3EF1
:1001080084004F218500B4280C1CA9280C10400835
:10011800BA070318BB0A4108BB0708303A063B0474
:10012800031D9928BA01BB019F28BB1F9F280830CF
:10013800BA000030BB007308103E84004F218F00C6
:1001480073081F3E84004F218E003C083E3E840009
:100158004F21F6003A08363E84004F217604870086
:100168008B177B08FF007A088A0079088400780ECC
:100178008300FE0E7E0E0900831603138F01713073
:1001880083120313CD004D08831603138F049001C7
:10019800D03083120313CD004D0883160313810555
:1001A80001158312031381018B161013101290127C
:1001B8009011901010148F018F01831603130C14E3
:1001C8009B1118119A010C3099001812831203130D
:1001D8009817831603138C168312031318168316A5
:1001E80003138501203086008701831203179E01BF
:1001F8009F018312031385010B178B172E08CD005F
:100208004D08FC003C307C02031C13297C08F13E9D
:10021800CD004D08FC00FF30BE00FF30162901302C
:10022800BE000030BF007C08D33ECD004D08FC0066
:10023800FC08031D24290230CD004D08F1002C29AB
:100248007C08013A031D2B29F101F10A2C29F1013F
:100258007C08CD004D08F2002D08CD004D08F400B3
:100268003C307402031C41297408F13ECD004D084E
:10027800F400FF30C000FF3044290130C0000030D6
:10028800C1007408D33ECD004D08F4007408CD00B9
:100298004D08F300022901308A000408840A820705
:1002A80000340F3487340534433469348234943449
:1002B800A134AC34B434BB34C034C534C934CD34BF
:1002C800A234D134E034E834ED34F034F234F43488
:1002D800F534F634F734F834F834F934F9343F3473
:1002E8001F34BF348F343F345F349A3447349434E6
:1002F8009F3479342F34C9344D34BF341134013428
:100308000334023406340434143410340934013408
:1003180003340234063404340C3408349034103472
:100328003034203460344034C03480342D342D349B
:100338002D342D342D342D342D342D342D342D34AD
:100348002D342D342D342D342D342D342D342D349D
:100358002D3401342D3401342D3401347E088A00C3
:100368007F088200B2218000840A04087D060319F0
:100378000034FF0A0319FE0AB62964008001840AC2
:0A0388000406031900340406C2291C
:02400E00C4FFED
:00000001FF
